{
  "_format": "hh-sol-artifact-1",
  "contractName": "MerkleDB",
  "sourceName": "contracts/MerkleDB.sol",
  "abi": [
    {
      "inputs": [],
      "stateMutability": "nonpayable",
      "type": "constructor"
    },
    {
      "anonymous": false,
      "inputs": [
        {
          "indexed": false,
          "internalType": "string",
          "name": "databaseIPFS",
          "type": "string"
        }
      ],
      "name": "DatabaseUpdate",
      "type": "event"
    },
    {
      "anonymous": false,
      "inputs": [
        {
          "indexed": false,
          "internalType": "bytes32",
          "name": "merkleRoot",
          "type": "bytes32"
        },
        {
          "indexed": false,
          "internalType": "string",
          "name": "merkleTreeIPFS",
          "type": "string"
        }
      ],
      "name": "MerkleUpdate",
      "type": "event"
    },
    {
      "anonymous": false,
      "inputs": [
        {
          "indexed": true,
          "internalType": "bytes32",
          "name": "role",
          "type": "bytes32"
        },
        {
          "indexed": true,
          "internalType": "bytes32",
          "name": "previousAdminRole",
          "type": "bytes32"
        },
        {
          "indexed": true,
          "internalType": "bytes32",
          "name": "newAdminRole",
          "type": "bytes32"
        }
      ],
      "name": "RoleAdminChanged",
      "type": "event"
    },
    {
      "anonymous": false,
      "inputs": [
        {
          "indexed": true,
          "internalType": "bytes32",
          "name": "role",
          "type": "bytes32"
        },
        {
          "indexed": true,
          "internalType": "address",
          "name": "account",
          "type": "address"
        },
        {
          "indexed": true,
          "internalType": "address",
          "name": "sender",
          "type": "address"
        }
      ],
      "name": "RoleGranted",
      "type": "event"
    },
    {
      "anonymous": false,
      "inputs": [
        {
          "indexed": true,
          "internalType": "bytes32",
          "name": "role",
          "type": "bytes32"
        },
        {
          "indexed": true,
          "internalType": "address",
          "name": "account",
          "type": "address"
        },
        {
          "indexed": true,
          "internalType": "address",
          "name": "sender",
          "type": "address"
        }
      ],
      "name": "RoleRevoked",
      "type": "event"
    },
    {
      "inputs": [],
      "name": "DEFAULT_ADMIN_ROLE",
      "outputs": [
        {
          "internalType": "bytes32",
          "name": "",
          "type": "bytes32"
        }
      ],
      "stateMutability": "view",
      "type": "function"
    },
    {
      "inputs": [],
      "name": "MERKLE_ROLE",
      "outputs": [
        {
          "internalType": "bytes32",
          "name": "",
          "type": "bytes32"
        }
      ],
      "stateMutability": "view",
      "type": "function"
    },
    {
      "inputs": [],
      "name": "databaseIPFS",
      "outputs": [
        {
          "internalType": "string",
          "name": "",
          "type": "string"
        }
      ],
      "stateMutability": "view",
      "type": "function"
    },
    {
      "inputs": [
        {
          "internalType": "bytes32",
          "name": "role",
          "type": "bytes32"
        }
      ],
      "name": "getRoleAdmin",
      "outputs": [
        {
          "internalType": "bytes32",
          "name": "",
          "type": "bytes32"
        }
      ],
      "stateMutability": "view",
      "type": "function"
    },
    {
      "inputs": [
        {
          "internalType": "bytes32",
          "name": "role",
          "type": "bytes32"
        },
        {
          "internalType": "address",
          "name": "account",
          "type": "address"
        }
      ],
      "name": "grantRole",
      "outputs": [],
      "stateMutability": "nonpayable",
      "type": "function"
    },
    {
      "inputs": [
        {
          "internalType": "bytes32",
          "name": "role",
          "type": "bytes32"
        },
        {
          "internalType": "address",
          "name": "account",
          "type": "address"
        }
      ],
      "name": "hasRole",
      "outputs": [
        {
          "internalType": "bool",
          "name": "",
          "type": "bool"
        }
      ],
      "stateMutability": "view",
      "type": "function"
    },
    {
      "inputs": [
        {
          "internalType": "bytes",
          "name": "bytesLeaf",
          "type": "bytes"
        },
        {
          "internalType": "bytes32[]",
          "name": "path",
          "type": "bytes32[]"
        }
      ],
      "name": "merkleProofData",
      "outputs": [
        {
          "internalType": "bool",
          "name": "",
          "type": "bool"
        }
      ],
      "stateMutability": "view",
      "type": "function"
    },
    {
      "inputs": [],
      "name": "merkleRoot",
      "outputs": [
        {
          "internalType": "bytes32",
          "name": "",
          "type": "bytes32"
        }
      ],
      "stateMutability": "view",
      "type": "function"
    },
    {
      "inputs": [],
      "name": "merkleTreeIPFS",
      "outputs": [
        {
          "internalType": "string",
          "name": "",
          "type": "string"
        }
      ],
      "stateMutability": "view",
      "type": "function"
    },
    {
      "inputs": [
        {
          "internalType": "bytes32",
          "name": "role",
          "type": "bytes32"
        },
        {
          "internalType": "address",
          "name": "account",
          "type": "address"
        }
      ],
      "name": "renounceRole",
      "outputs": [],
      "stateMutability": "nonpayable",
      "type": "function"
    },
    {
      "inputs": [
        {
          "internalType": "bytes32",
          "name": "role",
          "type": "bytes32"
        },
        {
          "internalType": "address",
          "name": "account",
          "type": "address"
        }
      ],
      "name": "revokeRole",
      "outputs": [],
      "stateMutability": "nonpayable",
      "type": "function"
    },
    {
      "inputs": [
        {
          "internalType": "bytes4",
          "name": "interfaceId",
          "type": "bytes4"
        }
      ],
      "name": "supportsInterface",
      "outputs": [
        {
          "internalType": "bool",
          "name": "",
          "type": "bool"
        }
      ],
      "stateMutability": "view",
      "type": "function"
    },
    {
      "inputs": [
        {
          "internalType": "string",
          "name": "_databaseIPFS",
          "type": "string"
        }
      ],
      "name": "updateDB",
      "outputs": [],
      "stateMutability": "nonpayable",
      "type": "function"
    },
    {
      "inputs": [
        {
          "internalType": "bytes32",
          "name": "_merkleRoot",
          "type": "bytes32"
        },
        {
          "internalType": "string",
          "name": "_merkleTreeIPFS",
          "type": "string"
        }
      ],
      "name": "updateMerkle",
      "outputs": [],
      "stateMutability": "nonpayable",
      "type": "function"
    }
  ],
  "bytecode": "0x60806040523480156200001157600080fd5b50620000366000801b6200002a6200007d60201b60201c565b6200008560201b60201c565b620000777fefb9a0764f88417a6977b3a6851c8fb991983b58bf47fec627571b2120bd9d136200006b6200007d60201b60201c565b6200008560201b60201c565b620001e0565b600033905090565b6200009782826200017660201b60201c565b6200017257600160008084815260200190815260200160002060000160008373ffffffffffffffffffffffffffffffffffffffff1673ffffffffffffffffffffffffffffffffffffffff16815260200190815260200160002060006101000a81548160ff021916908315150217905550620001176200007d60201b60201c565b73ffffffffffffffffffffffffffffffffffffffff168173ffffffffffffffffffffffffffffffffffffffff16837f2f8788117e7eff1d82e926ec794901d17c78024a50270940304540a733656f0d60405160405180910390a45b5050565b600080600084815260200190815260200160002060000160008373ffffffffffffffffffffffffffffffffffffffff1673ffffffffffffffffffffffffffffffffffffffff16815260200190815260200160002060009054906101000a900460ff16905092915050565b61187c80620001f06000396000f3fe608060405234801561001057600080fd5b50600436106100ea5760003560e01c8063696778a01161008c578063a217fddf11610066578063a217fddf1461025b578063d547741f14610279578063fc9740b114610295578063fd54b8c9146102b3576100ea565b8063696778a0146101df5780636e9263f91461020f57806391d148541461022b576100ea565b80632eb4a7ab116100c85780632eb4a7ab1461016b5780632f2ff15d1461018957806336568abe146101a557806339642fad146101c1576100ea565b806301ffc9a7146100ef5780631729c0961461011f578063248a9ca31461013b575b600080fd5b61010960048036038101906101049190611093565b6102d1565b6040516101169190611382565b60405180910390f35b61013960048036038101906101349190611131565b61034b565b005b61015560048036038101906101509190610fd6565b6103d3565b604051610162919061139d565b60405180910390f35b6101736103f2565b604051610180919061139d565b60405180910390f35b6101a3600480360381019061019e9190610fff565b6103f8565b005b6101bf60048036038101906101ba9190610fff565b610421565b005b6101c96104a4565b6040516101d691906113e8565b60405180910390f35b6101f960048036038101906101f491906110bc565b610532565b6040516102069190611382565b60405180910390f35b6102296004803603810190610224919061103b565b6105a3565b005b61024560048036038101906102409190610fff565b610637565b6040516102529190611382565b60405180910390f35b6102636106a1565b604051610270919061139d565b60405180910390f35b610293600480360381019061028e9190610fff565b6106a8565b005b61029d6106d1565b6040516102aa91906113e8565b60405180910390f35b6102bb61075f565b6040516102c8919061139d565b60405180910390f35b60007f7965db0b000000000000000000000000000000000000000000000000000000007bffffffffffffffffffffffffffffffffffffffffffffffffffffffff1916827bffffffffffffffffffffffffffffffffffffffffffffffffffffffff19161480610344575061034382610783565b5b9050919050565b61037c7fefb9a0764f88417a6977b3a6851c8fb991983b58bf47fec627571b2120bd9d136103776107ed565b610637565b61038557600080fd5b818160039190610396929190610e16565b507fed469f4c5e54a8a5636847e5376d8e6abfac00beb9dbf1ea59047e0d405a6deb60036040516103c7919061140a565b60405180910390a15050565b6000806000838152602001908152602001600020600101549050919050565b60015481565b610401826103d3565b6104128161040d6107ed565b6107f5565b61041c8383610892565b505050565b6104296107ed565b73ffffffffffffffffffffffffffffffffffffffff168173ffffffffffffffffffffffffffffffffffffffff1614610496576040517f08c379a000000000000000000000000000000000000000000000000000000000815260040161048d9061144c565b60405180910390fd5b6104a08282610972565b5050565b600380546104b19061164d565b80601f01602080910402602001604051908101604052809291908181526020018280546104dd9061164d565b801561052a5780601f106104ff5761010080835404028352916020019161052a565b820191906000526020600020905b81548152906001019060200180831161050d57829003601f168201915b505050505081565b6000610599838380806020026020016040519081016040528093929190818152602001838360200280828437600081840152601f19601f82011690508083019250505050505050600154878760405161058c92919061132f565b6040518091039020610a53565b9050949350505050565b6105d47fefb9a0764f88417a6977b3a6851c8fb991983b58bf47fec627571b2120bd9d136105cf6107ed565b610637565b6105dd57600080fd5b826001819055508181600291906105f5929190610e16565b507f06a01f52af723e1eb50fc4632990e19da1791e9e2e6bfc3900d495a8232579bc600154600260405161062a9291906113b8565b60405180910390a1505050565b600080600084815260200190815260200160002060000160008373ffffffffffffffffffffffffffffffffffffffff1673ffffffffffffffffffffffffffffffffffffffff16815260200190815260200160002060009054906101000a900460ff16905092915050565b6000801b81565b6106b1826103d3565b6106c2816106bd6107ed565b6107f5565b6106cc8383610972565b505050565b600280546106de9061164d565b80601f016020809104026020016040519081016040528092919081815260200182805461070a9061164d565b80156107575780601f1061072c57610100808354040283529160200191610757565b820191906000526020600020905b81548152906001019060200180831161073a57829003601f168201915b505050505081565b7fefb9a0764f88417a6977b3a6851c8fb991983b58bf47fec627571b2120bd9d1381565b60007f01ffc9a7000000000000000000000000000000000000000000000000000000007bffffffffffffffffffffffffffffffffffffffffffffffffffffffff1916827bffffffffffffffffffffffffffffffffffffffffffffffffffffffff1916149050919050565b600033905090565b6107ff8282610637565b61088e576108248173ffffffffffffffffffffffffffffffffffffffff166014610a6a565b6108328360001c6020610a6a565b604051602001610843929190611348565b6040516020818303038152906040526040517f08c379a000000000000000000000000000000000000000000000000000000000815260040161088591906113e8565b60405180910390fd5b5050565b61089c8282610637565b61096e57600160008084815260200190815260200160002060000160008373ffffffffffffffffffffffffffffffffffffffff1673ffffffffffffffffffffffffffffffffffffffff16815260200190815260200160002060006101000a81548160ff0219169083151502179055506109136107ed565b73ffffffffffffffffffffffffffffffffffffffff168173ffffffffffffffffffffffffffffffffffffffff16837f2f8788117e7eff1d82e926ec794901d17c78024a50270940304540a733656f0d60405160405180910390a45b5050565b61097c8282610637565b15610a4f57600080600084815260200190815260200160002060000160008373ffffffffffffffffffffffffffffffffffffffff1673ffffffffffffffffffffffffffffffffffffffff16815260200190815260200160002060006101000a81548160ff0219169083151502179055506109f46107ed565b73ffffffffffffffffffffffffffffffffffffffff168173ffffffffffffffffffffffffffffffffffffffff16837ff6391f5c32d9c69d2a47ea670b442974b53935d1edc7fd64eb21e047a839171b60405160405180910390a45b5050565b600082610a608584610d64565b1490509392505050565b606060006002836002610a7d9190611509565b610a8791906114b3565b67ffffffffffffffff811115610ac6577f4e487b7100000000000000000000000000000000000000000000000000000000600052604160045260246000fd5b6040519080825280601f01601f191660200182016040528015610af85781602001600182028036833780820191505090505b5090507f300000000000000000000000000000000000000000000000000000000000000081600081518110610b56577f4e487b7100000000000000000000000000000000000000000000000000000000600052603260045260246000fd5b60200101907effffffffffffffffffffffffffffffffffffffffffffffffffffffffffffff1916908160001a9053507f780000000000000000000000000000000000000000000000000000000000000081600181518110610be0577f4e487b7100000000000000000000000000000000000000000000000000000000600052603260045260246000fd5b60200101907effffffffffffffffffffffffffffffffffffffffffffffffffffffffffffff1916908160001a90535060006001846002610c209190611509565b610c2a91906114b3565b90505b6001811115610d16577f3031323334353637383961626364656600000000000000000000000000000000600f861660108110610c92577f4e487b7100000000000000000000000000000000000000000000000000000000600052603260045260246000fd5b1a60f81b828281518110610ccf577f4e487b7100000000000000000000000000000000000000000000000000000000600052603260045260246000fd5b60200101907effffffffffffffffffffffffffffffffffffffffffffffffffffffffffffff1916908160001a905350600485901c945080610d0f90611623565b9050610c2d565b5060008414610d5a576040517f08c379a0000000000000000000000000000000000000000000000000000000008152600401610d519061142c565b60405180910390fd5b8091505092915050565b60008082905060005b8451811015610df4576000858281518110610db1577f4e487b7100000000000000000000000000000000000000000000000000000000600052603260045260246000fd5b60200260200101519050808311610dd357610dcc8382610dff565b9250610de0565b610ddd8184610dff565b92505b508080610dec9061167f565b915050610d6d565b508091505092915050565b600082600052816020526040600020905092915050565b828054610e229061164d565b90600052602060002090601f016020900481019282610e445760008555610e8b565b82601f10610e5d57803560ff1916838001178555610e8b565b82800160010185558215610e8b579182015b82811115610e8a578235825591602001919060010190610e6f565b5b509050610e989190610e9c565b5090565b5b80821115610eb5576000816000905550600101610e9d565b5090565b600081359050610ec881611801565b92915050565b60008083601f840112610ee057600080fd5b8235905067ffffffffffffffff811115610ef957600080fd5b602083019150836020820283011115610f1157600080fd5b9250929050565b600081359050610f2781611818565b92915050565b600081359050610f3c8161182f565b92915050565b60008083601f840112610f5457600080fd5b8235905067ffffffffffffffff811115610f6d57600080fd5b602083019150836001820283011115610f8557600080fd5b9250929050565b60008083601f840112610f9e57600080fd5b8235905067ffffffffffffffff811115610fb757600080fd5b602083019150836001820283011115610fcf57600080fd5b9250929050565b600060208284031215610fe857600080fd5b6000610ff684828501610f18565b91505092915050565b6000806040838503121561101257600080fd5b600061102085828601610f18565b925050602061103185828601610eb9565b9150509250929050565b60008060006040848603121561105057600080fd5b600061105e86828701610f18565b935050602084013567ffffffffffffffff81111561107b57600080fd5b61108786828701610f8c565b92509250509250925092565b6000602082840312156110a557600080fd5b60006110b384828501610f2d565b91505092915050565b600080600080604085870312156110d257600080fd5b600085013567ffffffffffffffff8111156110ec57600080fd5b6110f887828801610f42565b9450945050602085013567ffffffffffffffff81111561111757600080fd5b61112387828801610ece565b925092505092959194509250565b6000806020838503121561114457600080fd5b600083013567ffffffffffffffff81111561115e57600080fd5b61116a85828601610f8c565b92509250509250929050565b61117f81611575565b82525050565b61118e81611581565b82525050565b60006111a0838561148c565b93506111ad8385846115e1565b82840190509392505050565b60006111c482611481565b6111ce8185611497565b93506111de8185602086016115f0565b6111e781611726565b840191505092915050565b60006111fd82611481565b61120781856114a8565b93506112178185602086016115f0565b80840191505092915050565b600081546112308161164d565b61123a8186611497565b9450600182166000811461125557600181146112675761129a565b60ff198316865260208601935061129a565b6112708561146c565b60005b8381101561129257815481890152600182019150602081019050611273565b808801955050505b50505092915050565b60006112b0602083611497565b91506112bb82611737565b602082019050919050565b60006112d36017836114a8565b91506112de82611760565b601782019050919050565b60006112f66011836114a8565b915061130182611789565b601182019050919050565b6000611319602f83611497565b9150611324826117b2565b604082019050919050565b600061133c828486611194565b91508190509392505050565b6000611353826112c6565b915061135f82856111f2565b915061136a826112e9565b915061137682846111f2565b91508190509392505050565b60006020820190506113976000830184611176565b92915050565b60006020820190506113b26000830184611185565b92915050565b60006040820190506113cd6000830185611185565b81810360208301526113df8184611223565b90509392505050565b6000602082019050818103600083015261140281846111b9565b905092915050565b600060208201905081810360008301526114248184611223565b905092915050565b60006020820190508181036000830152611445816112a3565b9050919050565b600060208201905081810360008301526114658161130c565b9050919050565b60008190508160005260206000209050919050565b600081519050919050565b600081905092915050565b600082825260208201905092915050565b600081905092915050565b60006114be826115d7565b91506114c9836115d7565b9250827fffffffffffffffffffffffffffffffffffffffffffffffffffffffffffffffff038211156114fe576114fd6116c8565b5b828201905092915050565b6000611514826115d7565b915061151f836115d7565b9250817fffffffffffffffffffffffffffffffffffffffffffffffffffffffffffffffff0483118215151615611558576115576116c8565b5b828202905092915050565b600061156e826115b7565b9050919050565b60008115159050919050565b6000819050919050565b60007fffffffff0000000000000000000000000000000000000000000000000000000082169050919050565b600073ffffffffffffffffffffffffffffffffffffffff82169050919050565b6000819050919050565b82818337600083830152505050565b60005b8381101561160e5780820151818401526020810190506115f3565b8381111561161d576000848401525b50505050565b600061162e826115d7565b91506000821415611642576116416116c8565b5b600182039050919050565b6000600282049050600182168061166557607f821691505b60208210811415611679576116786116f7565b5b50919050565b600061168a826115d7565b91507fffffffffffffffffffffffffffffffffffffffffffffffffffffffffffffffff8214156116bd576116bc6116c8565b5b600182019050919050565b7f4e487b7100000000000000000000000000000000000000000000000000000000600052601160045260246000fd5b7f4e487b7100000000000000000000000000000000000000000000000000000000600052602260045260246000fd5b6000601f19601f8301169050919050565b7f537472696e67733a20686578206c656e67746820696e73756666696369656e74600082015250565b7f416363657373436f6e74726f6c3a206163636f756e7420000000000000000000600082015250565b7f206973206d697373696e6720726f6c6520000000000000000000000000000000600082015250565b7f416363657373436f6e74726f6c3a2063616e206f6e6c792072656e6f756e636560008201527f20726f6c657320666f722073656c660000000000000000000000000000000000602082015250565b61180a81611563565b811461181557600080fd5b50565b61182181611581565b811461182c57600080fd5b50565b6118388161158b565b811461184357600080fd5b5056fea2646970667358221220b52fb5e35afeb1e5a87abfb4bfe3811c3d748c137ea6dd5585085d18a9bfbc1664736f6c63430008040033",
  "linkReferences": {},
  "deployedLinkReferences": {}
}