{
  "_format": "hh-sol-artifact-1",
  "contractName": "MerkleDB",
  "sourceName": "contracts/MerkleDB.sol",
  "abi": [
    {
      "inputs": [],
      "stateMutability": "nonpayable",
      "type": "constructor"
    },
    {
      "anonymous": false,
      "inputs": [
        {
          "indexed": false,
          "internalType": "bytes32",
          "name": "databaseIPFS",
          "type": "bytes32"
        }
      ],
      "name": "DatabaseUpdate",
      "type": "event"
    },
    {
      "anonymous": false,
      "inputs": [
        {
          "indexed": false,
          "internalType": "bytes32",
          "name": "merkleRoot",
          "type": "bytes32"
        },
        {
          "indexed": false,
          "internalType": "bytes32",
          "name": "merkleTreeIPFS",
          "type": "bytes32"
        }
      ],
      "name": "MerkleUpdate",
      "type": "event"
    },
    {
      "anonymous": false,
      "inputs": [
        {
          "indexed": true,
          "internalType": "bytes32",
          "name": "role",
          "type": "bytes32"
        },
        {
          "indexed": true,
          "internalType": "bytes32",
          "name": "previousAdminRole",
          "type": "bytes32"
        },
        {
          "indexed": true,
          "internalType": "bytes32",
          "name": "newAdminRole",
          "type": "bytes32"
        }
      ],
      "name": "RoleAdminChanged",
      "type": "event"
    },
    {
      "anonymous": false,
      "inputs": [
        {
          "indexed": true,
          "internalType": "bytes32",
          "name": "role",
          "type": "bytes32"
        },
        {
          "indexed": true,
          "internalType": "address",
          "name": "account",
          "type": "address"
        },
        {
          "indexed": true,
          "internalType": "address",
          "name": "sender",
          "type": "address"
        }
      ],
      "name": "RoleGranted",
      "type": "event"
    },
    {
      "anonymous": false,
      "inputs": [
        {
          "indexed": true,
          "internalType": "bytes32",
          "name": "role",
          "type": "bytes32"
        },
        {
          "indexed": true,
          "internalType": "address",
          "name": "account",
          "type": "address"
        },
        {
          "indexed": true,
          "internalType": "address",
          "name": "sender",
          "type": "address"
        }
      ],
      "name": "RoleRevoked",
      "type": "event"
    },
    {
      "inputs": [],
      "name": "DEFAULT_ADMIN_ROLE",
      "outputs": [
        {
          "internalType": "bytes32",
          "name": "",
          "type": "bytes32"
        }
      ],
      "stateMutability": "view",
      "type": "function"
    },
    {
      "inputs": [],
      "name": "MERKLE_ROLE",
      "outputs": [
        {
          "internalType": "bytes32",
          "name": "",
          "type": "bytes32"
        }
      ],
      "stateMutability": "view",
      "type": "function"
    },
    {
      "inputs": [],
      "name": "databaseIPFS",
      "outputs": [
        {
          "internalType": "bytes32",
          "name": "",
          "type": "bytes32"
        }
      ],
      "stateMutability": "view",
      "type": "function"
    },
    {
      "inputs": [
        {
          "internalType": "bytes32",
          "name": "role",
          "type": "bytes32"
        }
      ],
      "name": "getRoleAdmin",
      "outputs": [
        {
          "internalType": "bytes32",
          "name": "",
          "type": "bytes32"
        }
      ],
      "stateMutability": "view",
      "type": "function"
    },
    {
      "inputs": [
        {
          "internalType": "bytes32",
          "name": "role",
          "type": "bytes32"
        },
        {
          "internalType": "address",
          "name": "account",
          "type": "address"
        }
      ],
      "name": "grantRole",
      "outputs": [],
      "stateMutability": "nonpayable",
      "type": "function"
    },
    {
      "inputs": [
        {
          "internalType": "bytes32",
          "name": "role",
          "type": "bytes32"
        },
        {
          "internalType": "address",
          "name": "account",
          "type": "address"
        }
      ],
      "name": "hasRole",
      "outputs": [
        {
          "internalType": "bool",
          "name": "",
          "type": "bool"
        }
      ],
      "stateMutability": "view",
      "type": "function"
    },
    {
      "inputs": [
        {
          "internalType": "bytes",
          "name": "bytesLeaf",
          "type": "bytes"
        },
        {
          "internalType": "bytes32[]",
          "name": "path",
          "type": "bytes32[]"
        }
      ],
      "name": "merkleProofData",
      "outputs": [
        {
          "internalType": "bool",
          "name": "",
          "type": "bool"
        }
      ],
      "stateMutability": "view",
      "type": "function"
    },
    {
      "inputs": [],
      "name": "merkleRoot",
      "outputs": [
        {
          "internalType": "bytes32",
          "name": "",
          "type": "bytes32"
        }
      ],
      "stateMutability": "view",
      "type": "function"
    },
    {
      "inputs": [],
      "name": "merkleTreeIPFS",
      "outputs": [
        {
          "internalType": "bytes32",
          "name": "",
          "type": "bytes32"
        }
      ],
      "stateMutability": "view",
      "type": "function"
    },
    {
      "inputs": [
        {
          "internalType": "bytes32",
          "name": "role",
          "type": "bytes32"
        },
        {
          "internalType": "address",
          "name": "account",
          "type": "address"
        }
      ],
      "name": "renounceRole",
      "outputs": [],
      "stateMutability": "nonpayable",
      "type": "function"
    },
    {
      "inputs": [
        {
          "internalType": "bytes32",
          "name": "role",
          "type": "bytes32"
        },
        {
          "internalType": "address",
          "name": "account",
          "type": "address"
        }
      ],
      "name": "revokeRole",
      "outputs": [],
      "stateMutability": "nonpayable",
      "type": "function"
    },
    {
      "inputs": [
        {
          "internalType": "bytes4",
          "name": "interfaceId",
          "type": "bytes4"
        }
      ],
      "name": "supportsInterface",
      "outputs": [
        {
          "internalType": "bool",
          "name": "",
          "type": "bool"
        }
      ],
      "stateMutability": "view",
      "type": "function"
    },
    {
      "inputs": [
        {
          "internalType": "bytes32",
          "name": "_databaseIPFS",
          "type": "bytes32"
        }
      ],
      "name": "updateDB",
      "outputs": [],
      "stateMutability": "nonpayable",
      "type": "function"
    },
    {
      "inputs": [
        {
          "internalType": "bytes32",
          "name": "_merkleRoot",
          "type": "bytes32"
        },
        {
          "internalType": "bytes32",
          "name": "_merkleTreeIPFS",
          "type": "bytes32"
        }
      ],
      "name": "updateMerkle",
      "outputs": [],
      "stateMutability": "nonpayable",
      "type": "function"
    }
  ],
  "bytecode": "0x60806040523480156200001157600080fd5b50620000366000801b6200002a6200007d60201b60201c565b6200008560201b60201c565b620000777fefb9a0764f88417a6977b3a6851c8fb991983b58bf47fec627571b2120bd9d136200006b6200007d60201b60201c565b6200008560201b60201c565b620001e0565b600033905090565b6200009782826200017660201b60201c565b6200017257600160008084815260200190815260200160002060000160008373ffffffffffffffffffffffffffffffffffffffff1673ffffffffffffffffffffffffffffffffffffffff16815260200190815260200160002060006101000a81548160ff021916908315150217905550620001176200007d60201b60201c565b73ffffffffffffffffffffffffffffffffffffffff168173ffffffffffffffffffffffffffffffffffffffff16837f2f8788117e7eff1d82e926ec794901d17c78024a50270940304540a733656f0d60405160405180910390a45b5050565b600080600084815260200190815260200160002060000160008373ffffffffffffffffffffffffffffffffffffffff1673ffffffffffffffffffffffffffffffffffffffff16815260200190815260200160002060009054906101000a900460ff16905092915050565b6114e980620001f06000396000f3fe608060405234801561001057600080fd5b50600436106100ea5760003560e01c806391d148541161008c578063d547741f11610066578063d547741f1461025d578063f886295c14610279578063fc9740b114610295578063fd54b8c9146102b3576100ea565b806391d14854146101f3578063a217fddf14610223578063b455aff714610241576100ea565b80632f2ff15d116100c85780632f2ff15d1461016d57806336568abe1461018957806339642fad146101a5578063696778a0146101c3576100ea565b806301ffc9a7146100ef578063248a9ca31461011f5780632eb4a7ab1461014f575b600080fd5b61010960048036038101906101049190610e64565b6102d1565b604051610116919061108e565b60405180910390f35b61013960048036038101906101349190610dc3565b61034b565b60405161014691906110a9565b60405180910390f35b61015761036a565b60405161016491906110a9565b60405180910390f35b61018760048036038101906101829190610dec565b610370565b005b6101a3600480360381019061019e9190610dec565b610399565b005b6101ad61041c565b6040516101ba91906110a9565b60405180910390f35b6101dd60048036038101906101d89190610e8d565b610422565b6040516101ea919061108e565b60405180910390f35b61020d60048036038101906102089190610dec565b610493565b60405161021a919061108e565b60405180910390f35b61022b6104fd565b60405161023891906110a9565b60405180910390f35b61025b60048036038101906102569190610e28565b610504565b005b61027760048036038101906102729190610dec565b61058d565b005b610293600480360381019061028e9190610dc3565b6105b6565b005b61029d610633565b6040516102aa91906110a9565b60405180910390f35b6102bb610639565b6040516102c891906110a9565b60405180910390f35b60007f7965db0b000000000000000000000000000000000000000000000000000000007bffffffffffffffffffffffffffffffffffffffffffffffffffffffff1916827bffffffffffffffffffffffffffffffffffffffffffffffffffffffff1916148061034457506103438261065d565b5b9050919050565b6000806000838152602001908152602001600020600101549050919050565b60015481565b6103798261034b565b61038a816103856106c7565b6106cf565b610394838361076c565b505050565b6103a16106c7565b73ffffffffffffffffffffffffffffffffffffffff168173ffffffffffffffffffffffffffffffffffffffff161461040e576040517f08c379a00000000000000000000000000000000000000000000000000000000081526004016104059061112f565b60405180910390fd5b610418828261084c565b5050565b60035481565b6000610489838380806020026020016040519081016040528093929190818152602001838360200280828437600081840152601f19601f82011690508083019250505050505050600154878760405161047c92919061103b565b604051809103902061092d565b9050949350505050565b600080600084815260200190815260200160002060000160008373ffffffffffffffffffffffffffffffffffffffff1673ffffffffffffffffffffffffffffffffffffffff16815260200190815260200160002060009054906101000a900460ff16905092915050565b6000801b81565b6105357fefb9a0764f88417a6977b3a6851c8fb991983b58bf47fec627571b2120bd9d136105306106c7565b610493565b61053e57600080fd5b81600181905550806002819055507f6a642dbb9ddaa1608de17158332a565c155f2f0884af2aa95f01e9377183ab7b6001546002546040516105819291906110c4565b60405180910390a15050565b6105968261034b565b6105a7816105a26106c7565b6106cf565b6105b1838361084c565b505050565b6105e77fefb9a0764f88417a6977b3a6851c8fb991983b58bf47fec627571b2120bd9d136105e26106c7565b610493565b6105f057600080fd5b806003819055507f3d9f223cf80f8ab8d7d8aca77db3dba25c3f5e2030db632731b0506643adef1f60035460405161062891906110a9565b60405180910390a150565b60025481565b7fefb9a0764f88417a6977b3a6851c8fb991983b58bf47fec627571b2120bd9d1381565b60007f01ffc9a7000000000000000000000000000000000000000000000000000000007bffffffffffffffffffffffffffffffffffffffffffffffffffffffff1916827bffffffffffffffffffffffffffffffffffffffffffffffffffffffff1916149050919050565b600033905090565b6106d98282610493565b610768576106fe8173ffffffffffffffffffffffffffffffffffffffff166014610944565b61070c8360001c6020610944565b60405160200161071d929190611054565b6040516020818303038152906040526040517f08c379a000000000000000000000000000000000000000000000000000000000815260040161075f91906110ed565b60405180910390fd5b5050565b6107768282610493565b61084857600160008084815260200190815260200160002060000160008373ffffffffffffffffffffffffffffffffffffffff1673ffffffffffffffffffffffffffffffffffffffff16815260200190815260200160002060006101000a81548160ff0219169083151502179055506107ed6106c7565b73ffffffffffffffffffffffffffffffffffffffff168173ffffffffffffffffffffffffffffffffffffffff16837f2f8788117e7eff1d82e926ec794901d17c78024a50270940304540a733656f0d60405160405180910390a45b5050565b6108568282610493565b1561092957600080600084815260200190815260200160002060000160008373ffffffffffffffffffffffffffffffffffffffff1673ffffffffffffffffffffffffffffffffffffffff16815260200190815260200160002060006101000a81548160ff0219169083151502179055506108ce6106c7565b73ffffffffffffffffffffffffffffffffffffffff168173ffffffffffffffffffffffffffffffffffffffff16837ff6391f5c32d9c69d2a47ea670b442974b53935d1edc7fd64eb21e047a839171b60405160405180910390a45b5050565b60008261093a8584610c3e565b1490509392505050565b60606000600283600261095791906111d7565b6109619190611181565b67ffffffffffffffff8111156109a0577f4e487b7100000000000000000000000000000000000000000000000000000000600052604160045260246000fd5b6040519080825280601f01601f1916602001820160405280156109d25781602001600182028036833780820191505090505b5090507f300000000000000000000000000000000000000000000000000000000000000081600081518110610a30577f4e487b7100000000000000000000000000000000000000000000000000000000600052603260045260246000fd5b60200101907effffffffffffffffffffffffffffffffffffffffffffffffffffffffffffff1916908160001a9053507f780000000000000000000000000000000000000000000000000000000000000081600181518110610aba577f4e487b7100000000000000000000000000000000000000000000000000000000600052603260045260246000fd5b60200101907effffffffffffffffffffffffffffffffffffffffffffffffffffffffffffff1916908160001a90535060006001846002610afa91906111d7565b610b049190611181565b90505b6001811115610bf0577f3031323334353637383961626364656600000000000000000000000000000000600f861660108110610b6c577f4e487b7100000000000000000000000000000000000000000000000000000000600052603260045260246000fd5b1a60f81b828281518110610ba9577f4e487b7100000000000000000000000000000000000000000000000000000000600052603260045260246000fd5b60200101907effffffffffffffffffffffffffffffffffffffffffffffffffffffffffffff1916908160001a905350600485901c945080610be9906112f1565b9050610b07565b5060008414610c34576040517f08c379a0000000000000000000000000000000000000000000000000000000008152600401610c2b9061110f565b60405180910390fd5b8091505092915050565b60008082905060005b8451811015610cce576000858281518110610c8b577f4e487b7100000000000000000000000000000000000000000000000000000000600052603260045260246000fd5b60200260200101519050808311610cad57610ca68382610cd9565b9250610cba565b610cb78184610cd9565b92505b508080610cc69061131b565b915050610c47565b508091505092915050565b600082600052816020526040600020905092915050565b600081359050610cff8161146e565b92915050565b60008083601f840112610d1757600080fd5b8235905067ffffffffffffffff811115610d3057600080fd5b602083019150836020820283011115610d4857600080fd5b9250929050565b600081359050610d5e81611485565b92915050565b600081359050610d738161149c565b92915050565b60008083601f840112610d8b57600080fd5b8235905067ffffffffffffffff811115610da457600080fd5b602083019150836001820283011115610dbc57600080fd5b9250929050565b600060208284031215610dd557600080fd5b6000610de384828501610d4f565b91505092915050565b60008060408385031215610dff57600080fd5b6000610e0d85828601610d4f565b9250506020610e1e85828601610cf0565b9150509250929050565b60008060408385031215610e3b57600080fd5b6000610e4985828601610d4f565b9250506020610e5a85828601610d4f565b9150509250929050565b600060208284031215610e7657600080fd5b6000610e8484828501610d64565b91505092915050565b60008060008060408587031215610ea357600080fd5b600085013567ffffffffffffffff811115610ebd57600080fd5b610ec987828801610d79565b9450945050602085013567ffffffffffffffff811115610ee857600080fd5b610ef487828801610d05565b925092505092959194509250565b610f0b81611243565b82525050565b610f1a8161124f565b82525050565b6000610f2c838561115a565b9350610f398385846112af565b82840190509392505050565b6000610f508261114f565b610f5a8185611165565b9350610f6a8185602086016112be565b610f7381611393565b840191505092915050565b6000610f898261114f565b610f938185611176565b9350610fa38185602086016112be565b80840191505092915050565b6000610fbc602083611165565b9150610fc7826113a4565b602082019050919050565b6000610fdf601783611176565b9150610fea826113cd565b601782019050919050565b6000611002601183611176565b915061100d826113f6565b601182019050919050565b6000611025602f83611165565b91506110308261141f565b604082019050919050565b6000611048828486610f20565b91508190509392505050565b600061105f82610fd2565b915061106b8285610f7e565b915061107682610ff5565b91506110828284610f7e565b91508190509392505050565b60006020820190506110a36000830184610f02565b92915050565b60006020820190506110be6000830184610f11565b92915050565b60006040820190506110d96000830185610f11565b6110e66020830184610f11565b9392505050565b600060208201905081810360008301526111078184610f45565b905092915050565b6000602082019050818103600083015261112881610faf565b9050919050565b6000602082019050818103600083015261114881611018565b9050919050565b600081519050919050565b600081905092915050565b600082825260208201905092915050565b600081905092915050565b600061118c826112a5565b9150611197836112a5565b9250827fffffffffffffffffffffffffffffffffffffffffffffffffffffffffffffffff038211156111cc576111cb611364565b5b828201905092915050565b60006111e2826112a5565b91506111ed836112a5565b9250817fffffffffffffffffffffffffffffffffffffffffffffffffffffffffffffffff048311821515161561122657611225611364565b5b828202905092915050565b600061123c82611285565b9050919050565b60008115159050919050565b6000819050919050565b60007fffffffff0000000000000000000000000000000000000000000000000000000082169050919050565b600073ffffffffffffffffffffffffffffffffffffffff82169050919050565b6000819050919050565b82818337600083830152505050565b60005b838110156112dc5780820151818401526020810190506112c1565b838111156112eb576000848401525b50505050565b60006112fc826112a5565b915060008214156113105761130f611364565b5b600182039050919050565b6000611326826112a5565b91507fffffffffffffffffffffffffffffffffffffffffffffffffffffffffffffffff82141561135957611358611364565b5b600182019050919050565b7f4e487b7100000000000000000000000000000000000000000000000000000000600052601160045260246000fd5b6000601f19601f8301169050919050565b7f537472696e67733a20686578206c656e67746820696e73756666696369656e74600082015250565b7f416363657373436f6e74726f6c3a206163636f756e7420000000000000000000600082015250565b7f206973206d697373696e6720726f6c6520000000000000000000000000000000600082015250565b7f416363657373436f6e74726f6c3a2063616e206f6e6c792072656e6f756e636560008201527f20726f6c657320666f722073656c660000000000000000000000000000000000602082015250565b61147781611231565b811461148257600080fd5b50565b61148e8161124f565b811461149957600080fd5b50565b6114a581611259565b81146114b057600080fd5b5056fea2646970667358221220b0bc4ee97a0d3c6d0c9fee3bd68c3786d1df02ba604ccfbeec428a8e45483d4164736f6c63430008040033",
  "linkReferences": {},
  "deployedLinkReferences": {}
}